{
  "transactions": [
    {
      "hash": "0x9fa0564e2425295b0cb89cc68664c7f4bd8922d27ed0ad7a3515dc63b3e506be",
      "transactionType": "CALL",
      "contractName": null,
      "contractAddress": "0x7177a6867296406881e20d6647232314736dd09a",
      "function": "register(string)",
      "arguments": [
        "https://your-domain.com/agent.json"
      ],
      "transaction": {
        "from": "0x595ef7b98f9fb1196e577b576941aa474c375353",
        "to": "0x7177a6867296406881e20d6647232314736dd09a",
        "gas": "0x34c24",
        "value": "0x0",
        "input": "0xf2c298be0000000000000000000000000000000000000000000000000000000000000020000000000000000000000000000000000000000000000000000000000000002268747470733a2f2f796f75722d646f6d61696e2e636f6d2f6167656e742e6a736f6e000000000000000000000000000000000000000000000000000000000000",
        "nonce": "0x7",
        "chainId": "0xaa36a7"
      },
      "additionalContracts": [],
      "isFixedGasLimit": false
    }
  ],
  "receipts": [
    {
      "status": "0x1",
      "cumulativeGasUsed": "0x25d64d1",
      "logs": [
        {
          "address": "0x7177a6867296406881e20d6647232314736dd09a",
          "topics": [
            "0xddf252ad1be2c89b69c2b068fc378daa952ba7f163c4a11628f55a4df523b3ef",
            "0x0000000000000000000000000000000000000000000000000000000000000000",
            "0x000000000000000000000000595ef7b98f9fb1196e577b576941aa474c375353",
            "0x00000000000000000000000000000000000000000000000000000000000000c3"
          ],
          "data": "0x",
          "blockHash": "0x8f2ebcc3b0605b36318eb986fdb87172db8da16e2c98b86316d80f8b5c5e2231",
          "blockNumber": "0x9b1548",
          "blockTimestamp": "0x697e345c",
          "transactionHash": "0x9fa0564e2425295b0cb89cc68664c7f4bd8922d27ed0ad7a3515dc63b3e506be",
          "transactionIndex": "0x41",
          "logIndex": "0x8e",
          "removed": false
        },
        {
          "address": "0x7177a6867296406881e20d6647232314736dd09a",
          "topics": [
            "0xca52e62c367d81bb2e328eb795f7c7ba24afb478408a26c0e201d155c449bc4a",
            "0x00000000000000000000000000000000000000000000000000000000000000c3",
            "0x000000000000000000000000595ef7b98f9fb1196e577b576941aa474c375353"
          ],
          "data": "0x0000000000000000000000000000000000000000000000000000000000000020000000000000000000000000000000000000000000000000000000000000002268747470733a2f2f796f75722d646f6d61696e2e636f6d2f6167656e742e6a736f6e000000000000000000000000000000000000000000000000000000000000",
          "blockHash": "0x8f2ebcc3b0605b36318eb986fdb87172db8da16e2c98b86316d80f8b5c5e2231",
          "blockNumber": "0x9b1548",
          "blockTimestamp": "0x697e345c",
          "transactionHash": "0x9fa0564e2425295b0cb89cc68664c7f4bd8922d27ed0ad7a3515dc63b3e506be",
          "transactionIndex": "0x41",
          "logIndex": "0x8f",
          "removed": false
        }
      ],
      "logsBloom": "0x00000000000000400000000000000000000000200000000000000000000000200000000000000000000000200000000000000000000000000000080000200000000000000000000000000008000200000000000000000000000000000000000000000000020000000000000000004800000000000000000000000010000000000000000000000000000000000000000080000000000000000000000000000000000000000000000040000000000000000000000000000000000000000000000000000002000000000000000000000000000000000000000000000000000020000000000000010002000000000000000000000000000000000000000000000000",
      "type": "0x2",
      "transactionHash": "0x9fa0564e2425295b0cb89cc68664c7f4bd8922d27ed0ad7a3515dc63b3e506be",
      "transactionIndex": "0x41",
      "blockHash": "0x8f2ebcc3b0605b36318eb986fdb87172db8da16e2c98b86316d80f8b5c5e2231",
      "blockNumber": "0x9b1548",
      "gasUsed": "0x24131",
      "effectiveGasPrice": "0x465571d4",
      "from": "0x595ef7b98f9fb1196e577b576941aa474c375353",
      "to": "0x7177a6867296406881e20d6647232314736dd09a",
      "contractAddress": null
    }
  ],
  "libraries": [],
  "pending": [],
  "returns": {},
  "timestamp": 1769878620220,
  "chain": 11155111,
  "commit": "404b7a5"
}