{
  "transactions": [
    {
      "hash": "0xfcbf66247128c737bde918fe2b344d3b4ea27b521b58d324c7ccb4444185d2df",
      "transactionType": "CALL",
      "contractName": null,
      "contractAddress": "0x7177a6867296406881e20d6647232314736dd09a",
      "function": "register(string)",
      "arguments": [
        "https://example.com/agent.json"
      ],
      "transaction": {
        "from": "0x9eab1f983fadcb462bbba423306284b93a575bfb",
        "to": "0x7177a6867296406881e20d6647232314736dd09a",
        "gas": "0x24b7a",
        "value": "0x0",
        "input": "0xf2c298be0000000000000000000000000000000000000000000000000000000000000020000000000000000000000000000000000000000000000000000000000000001e68747470733a2f2f6578616d706c652e636f6d2f6167656e742e6a736f6e0000",
        "nonce": "0x0",
        "chainId": "0xaa36a7"
      },
      "additionalContracts": [],
      "isFixedGasLimit": false
    }
  ],
  "receipts": [
    {
      "status": "0x1",
      "cumulativeGasUsed": "0x946610",
      "logs": [
        {
          "address": "0x7177a6867296406881e20d6647232314736dd09a",
          "topics": [
            "0xddf252ad1be2c89b69c2b068fc378daa952ba7f163c4a11628f55a4df523b3ef",
            "0x0000000000000000000000000000000000000000000000000000000000000000",
            "0x0000000000000000000000009eab1f983fadcb462bbba423306284b93a575bfb",
            "0x00000000000000000000000000000000000000000000000000000000000000c4"
          ],
          "data": "0x",
          "blockHash": "0xe5f915316e06456a15b986f99527ed53297723b29be2e5ad09b189499cb1d06d",
          "blockNumber": "0x9b1d30",
          "blockTimestamp": "0x697e9828",
          "transactionHash": "0xfcbf66247128c737bde918fe2b344d3b4ea27b521b58d324c7ccb4444185d2df",
          "transactionIndex": "0x58",
          "logIndex": "0x5b",
          "removed": false
        },
        {
          "address": "0x7177a6867296406881e20d6647232314736dd09a",
          "topics": [
            "0xca52e62c367d81bb2e328eb795f7c7ba24afb478408a26c0e201d155c449bc4a",
            "0x00000000000000000000000000000000000000000000000000000000000000c4",
            "0x0000000000000000000000009eab1f983fadcb462bbba423306284b93a575bfb"
          ],
          "data": "0x0000000000000000000000000000000000000000000000000000000000000020000000000000000000000000000000000000000000000000000000000000001e68747470733a2f2f6578616d706c652e636f6d2f6167656e742e6a736f6e0000",
          "blockHash": "0xe5f915316e06456a15b986f99527ed53297723b29be2e5ad09b189499cb1d06d",
          "blockNumber": "0x9b1d30",
          "blockTimestamp": "0x697e9828",
          "transactionHash": "0xfcbf66247128c737bde918fe2b344d3b4ea27b521b58d324c7ccb4444185d2df",
          "transactionIndex": "0x58",
          "logIndex": "0x5c",
          "removed": false
        }
      ],
      "logsBloom": "0x00000000000000400000000000000000000000040000000000000000000000000000000000000000000000200000000000000000000000000000000000200000000000000000000000000008000000000000000000000000000000000000000000000000020000000000000000000800000000000000000000000010000000000000000040000000000000000000000080000000000000000000000004001000000000000000000040000000000000000020000000000000000000000000000000000002000000000000000000000000000000000000000000000000000020000000000000010000000000000000000000000000008000000000000000000000",
      "type": "0x2",
      "transactionHash": "0xfcbf66247128c737bde918fe2b344d3b4ea27b521b58d324c7ccb4444185d2df",
      "transactionIndex": "0x58",
      "blockHash": "0xe5f915316e06456a15b986f99527ed53297723b29be2e5ad09b189499cb1d06d",
      "blockNumber": "0x9b1d30",
      "gasUsed": "0x191b2",
      "effectiveGasPrice": "0x3c53ec87",
      "from": "0x9eab1f983fadcb462bbba423306284b93a575bfb",
      "to": "0x7177a6867296406881e20d6647232314736dd09a",
      "contractAddress": null
    }
  ],
  "libraries": [],
  "pending": [],
  "returns": {},
  "timestamp": 1769904168460,
  "chain": 11155111,
  "commit": "404b7a5"
}